S013000066696E616C736F757263652E7372656376
S113000045C0000060C000005EC000005CC000008D
S11300105AC0000058C0000056C0000054C0000080
S113002052C0000050C000004EC000004CC0000090
S11300304AC0000048C0000046C0000044C00000A0
S113004043C0000040C000003EC000003CC00000AF
S11300503AC0000038C0000036C0000034C00000C0
S113006032C0000030C000002EC000002CC00000D0
S11300702AC0000028C0000026C0000024C00000E0
S113008022C0000020C000001EC0000011241FBEBA
S1130090CFEFD0E1DEBFCDBF17E0A0E0B1E0ECE3ED
S11300A0FBE000E00BBF02C007900D92A03AB1073D
S11300B0D9F727E0A0EAB7E001C01D92A33AB2073E
S11300C0E1F7D7D039C59CCF1F920F920FB60F928C
S11300D011240BB60F928F939F93EF93FF93E091AC
S11300E0A007F091A107EC56F84F808182BF98B326
S11300F080E1892788BBFF91EF919F918F910F90A9
S11301000BBE0F900FBE0F901F90189521E22A95F9
S1130110F1F70000982F907F9BBBD898DA9A0000E3
S1130120DA9820E1829FC00111248BBBD898DA9A17
S11301300000DA98089521E22A95F1F70000982F3B
S1130140907F9BBBD89ADA9A0000DA9820E1829FCC
S1130150C00111248BBBD89ADA9A0000DA9808956A
S113016083ED90E30197F1F700C0000088E2CEDF51
S113017083EF91E00197F1F700C000008CE0C6DF47
S113018083EF91E00197F1F700C0000086E0BEDF45
S113019083EF91E00197F1F700C0000081E0B6DF42
S11301A083EF91E00197F1F700C000000895CF9329
S11301B0DF93EB018295880F880F807C805CA6DF3B
S11301C08881882329F02196B6DF89918111FCCF9B
S11301D0DF91CF91089581309105A9F41F9A86E7A4
S11301E091E00197F1F700C000001F9883E991E1C5
S11301F00197F1F700C0000086E791E00197F1F75D
S113020000C0000008950297D9F41F9A89EF90E086
S11302100197F1F700C0000086E791E00197F1F73C
S113022000C000001F9883E991E10197F1F700C035
S1130230000086E791E00197F1F700C000000895FF
S11302401F9A83EF91E00197F1F700C0000086E761
S113025091E00197F1F700C000001F988FE99FE03B
S11302600197F1F700C0000099EE9A95F1F70000AC
S113027008958FEF8ABB90E197BB9FE09093640051
S11302808093610082B988E180939A0087E6809325
S1130290990066DF0F2EFBE94F2E512CF02D0F2E07
S11302A0FCE96F2E712CF02D0F2EF0E38F2EF1E070
S11302B09F2EF02D0F2EFCE9CF2EF7E0DF2EF02D30
S11302C00F2EF0E0EF2EF1E0FF2EF02D05E610E00A
S11302D0C2E6D0E0D2018C918823E4F7F301808157
S11302E08093A207823309F071C083E083BF81E069
S11302F087BFE0918007F0918107EC56F84F808129
S113030082BF7894E0E8F7E0819191919093A107FE
S11303108093A0072FE180E395E021508040904036
S1130320E1F700C000008091A0079091A107019619
S113033059F780E591E09F938F93DF92CF92FF92DC
S1130340EF921FD1B70181E032DFE3EFF1E03197A3
S1130350F1F700C0000060E471E082E028DF83EF81
S113036091E00197F1F700C000000F900F900F90FB
S11303700F900F900F9048EC50E024C0D8019C934C
S11303809F01205E3F4F81918883888180618883AB
S113039088818F7E8883E217F307A9F788818062BA
S11303A0888388818F7D8883E9EFF0E03197F1F7C6
S11303B000C000009F5FF901903101F741505109DD
S11303C009F488CFE0E8F5E090E0D8CF813309F074
S11303D089C083E083BF81E087BFE0918A07F09101
S11303E08B07EC56F84F808182BF7894EAE8F7E0F7
S11303F0819191919093A1078093A0072FE180E3CD
S113040095E0215080409040E1F700C000008091C9
S1130410A0079091A107019659F780E791E09F9377
S11304208F93DF92CF92FF92EF92ABD0B70181E02E
S1130430BEDEE3EFF1E03197F1F700C0000060E6C3
S113044071E082E0B4DE83EF91E00197F1F700C040
S113045000000F900F900F900F900F900F900F2EA1
S1130460F0E5AF2EB12CF02D81E090E0B4DE91E008
S1130470A91AB108C9F748EC50E023C0D8019C93ED
S11304809F01205E3F4F81918883888180618883AA
S113049088818F7E88832E173F07A9F78881806221
S11304A0888388818F7D8883E9EFF0E03197F1F7C5
S11304B000C000009F5FF901903101F741505109DC
S11304C021F0E0E8F3E090E0D9CF0F2EF0E5AF2E75
S11304D0B12CF02D82E090E07EDEF1E0AF1AB1089D
S11304E0C9F7F8CE803309F0F5CE18BA9F928F92EF
S11304F0DF92CF92FF92EF9244D0B70181E057DEB2
S113050083EF91E00197F1F700C0000060E271E031
S113051082E04DDEA3EFB1E01197F1F700C00000D7
S11305200F900F900F900F900F900F9044E650E0B3
S113053024C0D8019C939F01205E3F4F8191888302
S113054088818061888388818F7E88832E173F0706
S1130550A9F788818062888388818F7D8883E9EF09
S1130560F0E03197F1F700C000009F5FF90190318E
S113057001F74150510909F4ADCEE0E8F1E090E013
S1130580D8CF0F931F93CF93DF93CDB7DEB72E97BA
S11305900FB6F894DEBF0FBECDBF0D891E8986E06D
S11305A08C831A8309838FEF9FE79E838D83AE012B
S11305B0475E5F4F6F89788DCE01019610D0EF8131
S11305C0F885E00FF11F10822E960FB6F894DEBF67
S11305D00FBECDBFDF91CF911F910F9108952F9240
S11305E03F924F925F926F927F928F929F92AF92BF
S11305F0BF92CF92DF92EF92FF920F931F93CF930C
S1130600DF93CDB7DEB72B970FB6F894DEBF0FBEDE
S1130610CDBF6C017B018A01FC01178216828381A4
S113062081FFBFC1CE0101963C01F6019381F70120
S113063093FD859193FF81917F01882309F4ADC1D6
S1130640853239F493FD859193FF81917F01853241
S113065021F4B60190E0D6D1E8CF912C212C312C95
S1130660FFE1F315D8F08B3279F038F4803279F069
S11306708332A1F4232D20611DC08D3261F08033BB
S113068069F4232D216016C0832D8260382EE32D5A
S1130690E4603E2E2AC0F32DF8601DC037FC2DC047
S11306A020ED280F2A3040F08E32B9F436FC75C1A3
S11306B0232D2064322E19C036FE06C08AE0989E8F
S11306C0200D1124922E11C0EAE02E9E200D11243B
S11306D0222EF32DF0623F2E08C08C3621F4832D98
S11306E08068382E02C0883641F4F70193FD859165
S11306F093FF81917F018111B3CF982F9F7D9554F2
S1130700933028F40C5F1F4F9FE399830DC0833609
S113071031F0833771F0833509F055C020C0F801FA
S1130720808189830E5F1F4F88248394912C530109
S113073012C02801F2E04F0E511CF801A080B180D4
S113074036FE03C0692D70E002C06FEF7FEFC50174
S11307504ED14C018201F32DFF773F2E15C02801A5
S113076022E0420E511CF801A080B18036FE03C085
S1130770692D70E002C06FEF7FEFC5012DD14C01F0
S1130780F32DF0683F2E820133FC19C0822D90E0D6
S113079088169906A0F4B60180E290E033D12A9439
S11307A0F5CFF50137FC859137FE81915F01B601E4
S11307B090E028D121102A9421E0821A9108811412
S11307C0910479F7E1C0843611F0893639F5F801DE
S11307D037FE07C060817181828193810C5F1F4F56
S11307E008C060817181072E000C880B990B0E5F85
S11307F01F4FF32DFF763F2E97FF09C090958095EC
S1130800709561957F4F8F4F9F4FF0683F2E2AE080
S113081030E0A30133D1882E861844C0853731F4E3
S1130820232D2F7EB22E2AE030E025C0932D997F10
S1130830B92E8F36C1F018F4883579F0AEC0803700
S113084019F0883721F0A9C0E92FE061BE2EB4FE6B
S11308500DC0FB2DF460BF2E09C034FE0AC0292F41
S11308602660B22E06C028E030E005C020E130E06A
S113087002C020E132E0F801B7FE07C06081718157
S1130880828193810C5F1F4F06C06081718180E07B
S113089090E00E5F1F4FA301F1D0882E8618FB2D28
S11308A0FF773F2E36FE0DC0232D2E7FA22E8914F6
S11308B058F434FE0BC032FC09C0832D8E7EA82E62
S11308C005C0B82CA32C03C0B82C01C0B92CA4FEBD
S11308D00FC0FE01E80DF11D8081803321F49A2DB3
S11308E0997EA92E09C0A2FE06C0B394B39404C095
S11308F08A2D867809F0B394A3FC10C0A0FE06C02C
S1130900B21480F4280C922C9B180DC0B21458F425
S1130910B60180E290E076D0B394F8CFB21418F424
S11309202B1802C0982C212CA4FE0FC0B60180E322
S113093090E068D0A2FE16C0A1FC03C088E790E056
S113094002C088E590E0B6010CC08A2D867851F08B
S1130950A1FE02C08BE201C080E2A7FC8DE2B601D9
S113096090E050D0891430F4B60180E390E04AD08E
S11309709A94F8CF8A94F301E80DF11D8081B601B1
S113098090E040D08110F6CF222009F44ECEB6017B
S113099080E290E037D02A94F7CFF60186819781E0
S11309A002C08FEF9FEF2B960FB6F894DEBF0FBEF9
S11309B0CDBFDF91CF911F910F91FF90EF90DF900A
S11309C0CF90BF90AF909F908F907F906F905F90EB
S11309D04F903F902F900895FC0105906150704016
S11309E00110D8F7809590958E0F9F1F0895FC01F4
S11309F06150704001900110D8F7809590958E0F4A
S1130A009F1F08950F931F93CF93DF93FB012381BF
S1130A1021FD03C08FEF9FEF2CC022FF16C046813B
S1130A205781248135814217530744F4A081B18151
S1130A309D012F5F3F4F318320838C932681378123
S1130A402F5F3F4F3783268314C08B01EC01FB01DA
S1130A500084F185E02D0995892BE1F6D8011696DD
S1130A608D919C911797019617969C938E93169748
S1130A70CE01DF91CF911F910F910895FA01AA271A
S1130A80283051F1203181F1E8946F936E7F6E5FCD
S1130A907F4F8F4F9F4FAF4FB1E03ED0B4E03CD07B
S1130AA0670F781F891F9A1FA11D680F791F8A1F5E
S1130AB0911DA11D6A0F711D811D911DA11D20D0C5
S1130AC009F468943F912AE0269F11243019305D7F
S1130AD03193DEF6CF010895462F4770405D419370
S1130AE0B3E00FD0C9F7F6CF462F4F70405D4A33BD
S1130AF018F0495D31FD4052419302D0A9F7EACF85
S1130B00B4E0A6959795879577956795BA95C9F7B3
S1130B1000976105710508959B01AC010A2E0694A6
S1130B205795479537952795BA95C9F7620F731F5F
S10F0B30841F951FA01D0895F894FFCFAA
S1130B3C2000000000000000000000000000000085
S1130B4C0000000000000000000000000000000095
S1130B5C202020427920594447204C4A4D20200023
S1130B6C20202020446F6F724C6F636B2020200078
S1130B7C202020202052657472792E202020200001
S1130B8C20202020204661696C2E2020202020006B
S1130B9C20202020204F50454E21202020202000B2
S1130BAC202020537563636573732121202020005A
S1130BBC0000000000000000000000000000000025
S1130BCC0000000000000000000000000000000015
S1130BDC0000000000000000000000000000000005
S1130BEC00000000000000000000000000000000F5
S1130BFC00000000000003000000030303030000D6
S1130C0C00000303030300000000030000000300C2
S1130C1C00000000000003000003000000000300BB
S1130C2C00030000000003000000000300000300A8
S1130C3C000000000000030000030000000003009B
S1130C4C000000000000030000000000030003008B
S1130C5C000000000000030000030000000003007B
S1130C6C000000000000030000000000000303006B
S1130C7C000000000000030000030000000003005B
S1130C8C000000000000030000000000000003004E
S1130C9C000000000000030000030000000003003B
S1130CAC000000000000030000000000000303002B
S1130CBC000000000000030000030000000003001B
S1130CCC000000000000030000000000030003000B
S1130CDC00000000000003000003000000000300FB
S1130CEC00030000000003000000000300000300E8
S1130CFC00000303030303000000030303030000C9
S1130D0C00000303030300000000030000000000C4
S1130D1C00000000000000000000000000000000C3
S1130D2C00000000000000000000000000000000B3
S1130D3C00000000000000000000000000000000A3
S1130D4C0000000000000000000000000000000093
S1130D5C0000000000000000000000000000000083
S1130D6C0000000000000000000000000000000073
S1130D7C0000000000000000000000000000000063
S1130D8C0000000000000000000000000000000053
S1130D9C0000000000000000000000000000000043
S1130DAC0000000000000000000000000000000033
S1130DBC0000000000000000000000000000000023
S1130DCC0000000000000000000000000000000013
S1130DDC0000000000000000000000000000000003
S1130DEC00000000000000000000000000000000F3
S1130DFC00000000000000000000000000000000E3
S1130E0C00000000000000000000000000000000D2
S1130E1C00000202020200000000020202020200B0
S1130E2C00000202020200000000020202020200A0
S1130E3C000200000000020000020000000002009A
S1130E4C000200000000020000020000000002008A
S1130E5C000200000000020000020000000002007A
S1130E6C000200000000020000020000000002006A
S1130E7C000200000000020000020000000002005A
S1130E8C000200000000020000020000000002004A
S1130E9C0002000000000200000002020202020034
S1130EAC0000020202020200000200000000020024
S1130EBC000200000000020000000000000002001C
S1130ECC000000000000000000020000000002000E
S1130EDC00020000000002000000000000000200FC
S1130EEC00000000000002000002000000000200EC
S1130EFC00020000000002000000000000000200DC
S1130F0C00000000000002000002000000000200CB
S1130F1C00020000000002000000000000000200BB
S1130F2C00020000000002000002000000000200A9
S1130F3C0000020202020000000000000000020097
S1130F4C0000020202020000000200000000020085
S1130F5C0000000000000000000000000000000081
S1130F6C0000000000000000000000000000000071
S1130F7C0000000000000000000000000000000061
S1130F8C0000000000000000000000000000000051
S1130F9C0000000000000000000000000000000041
S1130FAC0000000000000000000000000000000031
S1130FBC0000000000000000000000000000000021
S1130FCC0000000000000000000000000000000011
S1130FDC0000000000000000000000000000000001
S1130FEC00000000000000000000000000000000F1
S1130FFC00000000000000000000000000000000E1
S113100C00000000000000000000000000000000D0
S113101C00010101010101000000010101010000B6
S113102C00010101010100000000000000000100AA
S113103C000000000000010000010000000001009D
S113104C000000010000000000000000000001008E
S113105C000000000000010000010000000001007D
S113106C000000010000000000000000000001006E
S113107C000000000000010000010000000001005D
S113108C000000010000000000000000000001004E
S113109C0001010101010100000101010101010034
S11310AC000000010000000000000000000001002E
S11310BC000000000000010000010000000001001D
S11310CC000000010000000000000000000001000E
S11310DC00000000000001000001000000000100FD
S11310EC00000001000000000000000000000100EE
S11310FC00000000000001000001000000000100DD
S113110C00000001000000000000000000000100CD
S113111C00000000000001000001000000000100BC
S113112C00000001000000000000000000000100AD
S113113C000000000000010000010000000001009C
S113114C0001010101010000010101010101010083
S113115C000000000000000000000000000000007F
S113116C000000000000000000000000000000006F
S113117C000000000000000000000000000000005F
S113118C000000000000000000000000000000004F
S113119C000000000000000000000000000000003F
S11311AC000000000000000000000000000000002F
S11311BC0000000000000000FFFF0000020004001B
S11311CC0700FFFF112B424D6172758925732000B6
S9030000FC
